:020000040000FA
:100000000A128A11FC2F00308A000408840A820731
:100010000034013400340A34003464340034E834E9
:10002000033410342734483465346C346C346F3402
:10003000203457346F3472346C34643421342134B6
:10004000213400344D346F347634653472342034C6
:10005000703461346E34743461346C346C346134B3
:1000600000344D346F34733474346134723420345A
:1000700063347534723473346F34723400344D34F5
:100080006F347634653472342034633475347234AA
:1000900073346F347234003441346C346F346E34E2
:0C00A000733479340034253464340034A7
:10070200F40074080A128A1152240800F700023019
:1007120077020318080028307402031808007708CB
:10072200F50006300310F50DFF3E031D932B8030BC
:100732007504F600740876070A128A111B24080051
:10074200F500750884000A128A1103200A128A1120
:10075200003A03190800750884000A128A1103205E
:100762000A128A110A128A1152240A128A110130BB
:10077200F4007408F507A22BF000701CC42B83123E
:1007820003130814C72B8312031308100310F00C71
:10079200701CCF2B831203138814D22B83120313E2
:1007A20088100310F00C701CDA2B83120313081547
:1007B200DD2B8312031308110310F00C701CE52BC0
:1007C200831203138815080083120313881108008B
:1007D200780879040319162CFD01FD0AF91BFD2B7B
:1007E20001300310F80DF90DFF3E031DF22B01300D
:1007F200FC007C08FD07EF2B79087B02031D032C0C
:1008020078087A02031C0B2C7808FA027908031C78
:10081200FB03FB0201300310F90CF80CFF3E031D31
:100822000C2C0130FD02031DFD2B7B08F9007A0818
:10083200F8000800F3000330F2009730F100F10BEA
:10084200202CF20B202C252C7308F100043003100D
:10085200F10CFF3E031D282C71080A128A11BD23D8
:100862000A128A1183120313091089140630F10047
:10087200F10B392C000083120313891073080A123A
:100882008A11BD230A128A118312031309108914D3
:100892000630F100F10B4B2C000083120313891078
:1008A2000800F3000330F2009730F100F10B572CEF
:1008B200F20B572C5C2C7308F10004300310F10C7E
:1008C200FF3E031D5F2C71080A128A11BD230A1212
:1008D2008A1183120313091489140630F100F10BF3
:1008E200702C000083120313891073080A128A11F4
:1008F200BD230A128A1183120313091489140630C4
:10090200F100F10B822C00008312031389100800FE
:10091200F501F601700871040319C02CF701F70AFA
:10092200F11B9F2C01300310F00DF10DFF3E031D52
:10093200942C0130F4007408F707912C0130031055
:10094200F50DF60DFF3E031DA02C71087302031D69
:10095200AC2C70087202031CB52C7008F2027108EC
:10096200031CF303F302751401300310F10CF00CB5
:10097200FF3E031DB62C0130F702031D9F2C7608A3
:10098200F1007508F0000800F800831603138811BF
:10099200081188100810891009104E30F600EB304B
:1009A200F500F50BD22CF60BD22C03300A128A1169
:1009B200BD230A128A118312031309108914063007
:1009C200F500F50BE22C00008312031389100230AC
:1009D200F7000430F600BA30F500F50BEE2CF60BFA
:1009E200EE2CF70BEE2C000003300A128A11BD2305
:1009F2000A128A1183120313091089140630F500B2
:100A0200F50B012D00008312031389108530F500C8
:100A1200F50B092D03300A128A11BD230A128A111D
:100A220083120313091089140630F500F50B172DF4
:100A320000008312031389108530F500F50B1F2D7A
:100A420002300A128A11BD230A128A118312031379
:100A5200091089140630F500F50B2D2D00008312C4
:100A6200031389108530F500F50B352D023078021D
:100A720003183D2D20303E2D28300A128A111B24E6
:100A82000A128A112130F500F50B452D0C300A129D
:100A92008A111B240A128A112130F500F50B4F2D01
:100AA20001300A128A111B240A128A1102300A1218
:100AB2008A111B240A128A110630F6003030F50022
:100AC200F50B612DF60B612D000008008312031354
:100AD200A8002030A2002208A500013083120313CF
:100AE200A807FF30280784000A128A1103200A127D
:100AF2008A11A2002208AB002B0803190800253036
:100B02002B0603198B2D2B080A128A1181230A1234
:100B12008A116E2D83120313A6010130A807FF303C
:100B2200280784000A128A1103200A128A11AB00D4
:100B3200A200A3012308003A0319A02D6E2D22085A
:100B4200003A0319372E643A0319AB2D0D3A0319F3
:100B5200AB2D6E2D2508840083130008A900840A9A
:100B62000008AA000230A2002208A507AA1FC22D6F
:100B72000330A2002208A604A909AA09A90A031996
:100B8200AA0AAB01AB0A05302B060319E92D2B0883
:100B9200A2002207013E84000A128A1103200A12CF
:100BA2008A11A3000A128A1103200A128A11A400D0
:100BB20024082A02031DDF2D23082902031CE92D24
:100BC2000130A2002208AB0705302B06031DC82DF9
:100BD200260803390319F32D2D300A128A118123B5
:100BE2000A128A11831203132B08A2002208A700FB
:100BF200FF3083120313A2002208A707270A031952
:100C02006E2D0A30F8000030F9002708A2002207F2
:100C1200013E84000A128A1103200A128A11F0008E
:100C22000A128A1103200A128A11F1002A08F3001B
:100C32002908F2000A128A1189240A128A117108FB
:100C4200FB007008FA000A128A11E9230A128A11BB
:100C52007808303E83120313A3002308AB002B084D
:100C62000A128A1181230A128A11F92D08008316A9
:100C720003131F08F03906389F0010308312031344
:100C8200AC002C08F40002300A128A11C5240A12A0
:100C92008A1183120313AF0101300A128A111B2435
:100CA2000A128A111A3083120313AD00F730AC0016
:100CB200AC0B592EAD0B592E5E2E0B300A128A1137
:100CC200A1230A128A11053083120313AC002C08E7
:100CD200F40001300A128A1187230A128A11831240
:100CE20003132F08AC00AD012C08A0002D08A100B1
:100CF2004B300A128A1167250A128A1101308312B7
:100D02000313AC002C08AF0702300A128A111B240D
:100D12000A128A11033083120313AD009730AC001C
:100D2200AC0B912EAD0B912E1A300A128A11A1230F
:100D32000A128A111C300A128A111B240A128A1101
:100D4200063083120313AE001330AD00AD30AC0099
:100D5200AC0BA92EAD0BA92EAE0BA92E1C300A127C
:100D62008A111B240A128A11063083120313AE0061
:100D72001330AD00AD30AC00AC0BBD2EAD0BBD2EB3
:100D8200AE0BBD2E1C300A128A111B240A128A11C4
:100D9200063083120313AE001330AD00AD30AC0049
:100DA200AC0BD12EAD0BD12EAE0BD12E18300A12B8
:100DB2008A111B240A128A11063083120313AE0011
:100DC2001330AD00AD30AC00AC0BE52EAD0BE52E13
:100DD200AE0BE52E18300A128A111B240A128A1150
:100DE200063083120313AE001330AD00AD30AC00F9
:100DF200AC0BF92EAD0BF92EAE0BF92E18300A12F0
:100E02008A111B240A128A11063083120313AE00C0
:100E12001330AD00AD30AC00AC0B0D2FAD0B0D2F70
:100E2200AE0B0D2F01300A128A111B240A128A11ED
:100E3200063083120313AD002F30AC00AC0B1F2F12
:100E4200AD0B1F2F242F29300A128A1167250A128F
:100E52008A110F300A128A111B240A128A110B30CE
:100E620083120313AE002630AD005D30AC00AC0B34
:100E7200382FAD0B382FAE0B382F0E300A128A11D5
:100E82001B240A128A110B3083120313AE00263080
:100E9200AD005D30AC00AC0B4C2FAD0B4C2FAE0B4C
:100EA2004C2F01300A128A111B240A128A110630B1
:100EB20083120313AD002F30AC00AC0B5E2FAD0BD1
:100EC2005E2F632F37300A128A1167250A128A11A0
:100ED20010300A128A111B240A128A110630831258
:100EE2000313AE001330AD00AD30AC00AC0B772F66
:100EF200AD0B772FAE0B772F10300A128A111B24FD
:100F02000A128A11063083120313AE001330AD00A9
:100F1200AD30AC00AC0B8B2FAD0B8B2FAE0B8B2FF0
:100F220010300A128A111B240A128A110630831207
:100F32000313AE001330AD00AD30AC00AC0B9F2FED
:100F4200AD0B9F2FAE0B9F2F10300A128A111B245C
:100F52000A128A11063083120313AE001330AD0059
:100F6200AD30AC00AC0BB32FAD0BB32FAE0BB32F28
:100F720010300A128A111B240A128A1106308312B7
:100F82000313AE001330AD00AD30AC00AC0BC72F75
:100F9200AD0BC72FAE0BC72F10300A128A111B24BC
:100FA2000A128A11063083120313AE001330AD0009
:100FB200AD30AC00AC0BDB2FAD0BDB2FAE0BDB2F60
:100FC20044300A128A11A1230A128A110C300A1221
:100FD2008A111B240A128A110B3083120313AE00EA
:100FE2002630AD005D30AC00AC0BF52FAD0BF52F0C
:0E0FF200AE0BF52F4D2E83010A128A11382EF8
:02400E007A3FF7
:00000001FF
