:020000040000FA
:100000000A128A11FC2F00308A000408840A820731
:100010000034013400340A34003464340034E834E9
:10002000033410342734483465346C346C346F3402
:10003000203457346F3472346C34643421342134B6
:10004000213400344D346F347634653472342034C6
:10005000703461346E34743461346C346C346134B3
:1000600000344D346F34733474346134723420345A
:1000700063347534723473346F34723400344D34F5
:100080006F347634653472342034633475347234AA
:1000900073346F347234003441346C346F346E34E2
:0C00A000733479340034253464340034A7
:1006DE00F40074080A128A113F240800F700023051
:1006EE0077020318080028307402031808007708F0
:1006FE00F50006300310F50DFF3E031D812B8030F3
:10070E007504F600740876070A128A110924080087
:10071E00F500750884000A128A1103200A128A1144
:10072E00003A03190800750884000A128A11032082
:10073E000A128A110A128A113F240A128A110130F2
:10074E00F4007408F507902BF000701CB22B831286
:10075E0003130814B52B8312031308100310F00CA7
:10076E00701CBD2B831203138814C02B831203132A
:10077E0088100310F00C701CC82B8312031308157D
:10078E00CB2B8312031308110310F00C701CD32B08
:10079E0083120313881508008312031388110800AF
:1007AE00780879040319042CFD01FD0AF91BEB2BC3
:1007BE0001300310F80DF90DFF3E031DE02B013043
:1007CE00FC007C08FD07DD2B79087B02031DF12B55
:1007DE0078087A02031CF92B7808FA027908031CB0
:1007EE00FB03FB0201300310F90CF80CFF3E031D56
:1007FE00FA2B0130FD02031DEB2B7B08F9007A0862
:10080E00F8000800F3000730F2007D30F100F10B24
:10081E000E2CF20B0E2C7308F10004300310F10CA9
:10082E00FF3E031D152C71080A128A11AB230A1202
:10083E008A1183120313091089141030F100F10B81
:10084E00262C000083120313891073080A128A11D2
:10085E00AB230A128A118312031309108914103064
:10086E00F100F10B382C00008312031389100800DD
:10087E00F3000730F2007D30F100F10B442CF20B47
:10088E00442C7308F10004300310F10CFF3E031DDD
:10089E004B2C71080A128A11AB230A128A11831289
:1008AE000313091489141030F100F10B5C2C0000B5
:1008BE0083120313891073080A128A11AB230A12CA
:1008CE008A1183120313091489141030F100F10BED
:1008DE006E2C00008312031389100800F501F60137
:1008EE00700871040319AC2CF701F70AF11B8B2C5D
:1008FE0001300310F00DF10DFF3E031D802C013071
:10090E00F4007408F7077D2C01300310F50DF60D79
:10091E00FF3E031D8C2C71087302031D982C70086A
:10092E007202031CA12C7008F2027108031CF3035F
:10093E00F302751401300310F10CF00CFF3E031D91
:10094E00A22C0130F702031D8B2C7608F1007508DE
:10095E00F0000800F80083160313881108118810A0
:10096E00081089100910C330F600CD30F500F50BD4
:10097E00BE2CF60BBE2C03300A128A11AB230A12C0
:10098E008A1183120313091089141030F500F50B28
:10099E00CE2C00008312031389100330F7008A3027
:1009AE00F6005530F500F50BDA2CF60BDA2CF70BBA
:1009BE00DA2CE12C03300A128A11AB230A128A11A7
:1009CE0083120313091089141030F500F50BED2C6A
:1009DE000000831203138910C730F500F62CF50BB7
:1009EE00F52CF92CFA2C03300A128A11AB230A12B9
:1009FE008A1183120313091089141030F500F50BB8
:100A0E00062D0000831203138910C730F5000F2D39
:100A1E00F50B0E2D122D132D02300A128A11AB2357
:100A2E000A128A1183120313091089141030F5006B
:100A3E00F50B1F2D0000831203138910C730F5002C
:100A4E00282DF50B272D2B2D2C2D02307802031877
:100A5E00322D2030332D28300A128A1109240A1221
:100A6E008A115330F500F50B3A2D0C300A128A110B
:100A7E0009240A128A115330F500F50B442D01306A
:100A8E000A128A1109240A128A1102300A128A11D4
:100A9E0009240A128A110D30F600FB30F500F50B11
:100AAE00562DF60B562D5B2D080083120313A8004E
:100ABE002030A2002208A500013083120313A807DC
:100ACE00FF30280784000A128A1103200A128A11A5
:100ADE00A2002208AB002B080319080025302B06B4
:100AEE000319802D2B080A128A116F230A128A11FC
:100AFE00632D83120313A6010130A807FF302807C8
:100B0E0084000A128A1103200A128A11AB00A20075
:100B1E00A3012308003A0319952D632D2208003AEC
:100B2E0003192C2E643A0319A02D0D3A0319A02D8A
:100B3E00632D2508840083130008A900840A000889
:100B4E00AA000230A2002208A507AA1FB72D033063
:100B5E00A2002208A604A909AA09A90A0319AA0A29
:100B6E00AB01AB0A05302B060319DE2D2B08A200B4
:100B7E002207013E84000A128A1103200A128A11EA
:100B8E00A3000A128A1103200A128A11A400240853
:100B9E002A02031DD42D23082902031CDE2D013049
:100BAE00A2002208AB0705302B06031DBD2D26081B
:100BBE0003390319E82D2D300A128A116F230A12F8
:100BCE008A11831203132B08A2002208A700FF30FC
:100BDE0083120313A2002208A707270A0319632D05
:100BEE000A30F8000030F9002708A2002207013E63
:100BFE0084000A128A1103200A128A11F0000A12C6
:100C0E008A1103200A128A11F1002A08F30029081A
:100C1E00F2000A128A1175240A128A117108FB0059
:100C2E007008FA000A128A11D7230A128A1178085C
:100C3E00303E83120313A3002308AB002B080A12C5
:100C4E008A116F230A128A11EE2D080083160317DC
:100C5E008801103083120313AC002C08F40002300C
:100C6E000A128A11B1240A128A1183120313AF01D8
:100C7E0001300A128A1109240A128A114130831294
:100C8E000313AD00ED30AC00AC0B4B2EAD0B4B2E69
:100C9E00502E0B300A128A118F230A128A11053038
:100CAE0083120313AC002C08F40001300A128A11CF
:100CBE0075230A128A11831203132F08AC00AD019B
:100CCE002C08A0002D08A1004B300A128A115C25B9
:100CDE000A128A11013083120313AC002C08AF07DD
:100CEE0002300A128A1109240A128A11073083125D
:100CFE000313AD007C30AC00AC0B832EAD0B832EFA
:100D0E0000001A300A128A118F230A128A111C301F
:100D1E000A128A1109240A128A110D308312031342
:100D2E00AE00AF30AD00B530AC00AC0B9C2EAD0BB1
:100D3E009C2EAE0B9C2EA32E1C300A128A11092457
:100D4E000A128A110D3083120313AE00AF30AD00BC
:100D5E00B530AC00AC0BB12EAD0BB12EAE0BB12E2F
:100D6E00B82E1C300A128A1109240A128A110D306B
:100D7E0083120313AE00AF30AD00B530AC00AC0B38
:100D8E00C62EAD0BC62EAE0BC62ECD2E18300A12A9
:100D9E008A1109240A128A110D3083120313AE0030
:100DAE00AF30AD00B530AC00AC0BDB2EAD0BDB2E97
:100DBE00AE0BDB2EE22E18300A128A1109240A120B
:100DCE008A110D3083120313AE00AF30AD00B53073
:100DDE00AC00AC0BF02EAD0BF02EAE0BF02EF72EB2
:100DEE0018300A128A1109240A128A110D30831240
:100DFE000313AE00AF30AD00B530AC00AC0B052F19
:100E0E00AD0B052FAE0B052F0C2F01300A128A11D8
:100E1E0009240A128A110D3083120313AD00FB3020
:100E2E00AC00AC0B182FAD0B182F29300A128A11FB
:100E3E005C250A128A110F300A128A1109240A122D
:100E4E008A111A3083120313AE005E30AD006D307E
:100E5E00AC00AC0B302FAD0B302FAE0B302F372F2D
:100E6E000E300A128A1109240A128A111A308312BC
:100E7E000313AE005E30AD006D30AC00AC0B452FF1
:100E8E00AD0B452FAE0B452F4C2F01300A128A1198
:100E9E0009240A128A110D3083120313AD00FB30A0
:100EAE00AC00AC0B582FAD0B582F37300A128A11ED
:100EBE005C250A128A1110300A128A1109240A12AC
:100ECE008A110D3083120313AE00AF30AD00B53072
:100EDE00AC00AC0B702FAD0B702FAE0B702F772FAD
:100EEE0010300A128A1109240A128A110D30831247
:100EFE000313AE00AF30AD00B530AC00AC0B852F98
:100F0E00AD0B852FAE0B852F8C2F10300A128A1148
:100F1E0009240A128A110D3083120313AE00AF306A
:100F2E00AD00B530AC00AC0B9A2FAD0B9A2FAE0BBB
:100F3E009A2FA12F10300A128A1109240A128A112F
:100F4E000D3083120313AE00AF30AD00B530AC00E0
:100F5E00AC0BAF2FAD0BAF2FAE0BAF2FB62F10309C
:100F6E000A128A1109240A128A110D3083120313F0
:100F7E00AE00AF30AD00B530AC00AC0BC42FAD0B36
:100F8E00C42FAE0BC42FCB2F10300A128A11092496
:100F9E000A128A110D3083120313AE00AF30AD006A
:100FAE00B530AC00AC0BD92FAD0BD92FAE0BD92F62
:100FBE00E02F44300A128A118F230A128A110C3044
:100FCE000A128A1109240A128A111A308312031383
:100FDE00AE005E30AD006D30AC00AC0BF42FAD0B3F
:100FEE00F42FAE0BF42FFB2F3F2E83010A128A1122
:020FFE002D2E96
:04400E00D2EFFFFFEF
:00000001FF
